:020000040001F9
:10D0000090320020F5D001000FD1010011D10100B4
:10D010000000000000000000000000000000000010
:10D0200000000000000000000000000013D101001B
:10D03000000000000000000015D1010017D1010020
:10D0400019D1010019D10100D1D3010019D101007A
:10D0500019D101000000000091D1010019D1010097
:10D0600019D1010019D1010019D1010019D1010014
:10D0700019D1010019D1010019D1010019D1010004
:10D0800019D1010099D2010019D1010019D1010073
:10D09000B9D2010019D101000DD3010019D101004D
:10D0A00019D1010019D101000000000000000000AA
:10D0B0000000000000000000000000000000000070
:10D0C0000348854600F052F80048004715DC01008F
:10D0D00090320020401E00BF00BF00BF00BF00BF55
:10D0E00000BF00BF00BF00BF00BF00BF00BFF1D145
:10D0F000704700000321094802680A43026008489B
:10D1000002680A4302600748804707480047FEE775
:10D11000FEE7FEE7FEE7FEE7FEE70000240500402D
:10D120005405004031D30100C1D0010003460B4338
:10D130009B0703D009E008C9121F08C0042AFAD2CD
:10D1400003E00B780370401C491C521EF9D2704753
:10D1500030B504460020034600E05B1C934203D236
:10D16000E05CCD5C401BF8D030BD0000064C0125D2
:10D17000064E05E0E36807CC2B430C3C984710347F
:10D18000B442F7D3FFF7A0FF50E3010070E30100C2
:10D19000F8B50024FF2501350126274600942846CE
:10D1A00000F0E4FE002808D034484068304204D043
:10D1B000334800212818344301602D1D76007F1C60
:10D1C000ADB2042FEBD3FF207D3000F0CFFE00285E
:10D1D00007D02C4800210160400704432A48006919
:10D1E00000902A4F200712D00126002526420AD09F
:10D1F0002748AA00111808690969C004C00E8903EC
:10D20000BA58890F904776006D1C042DEED3002C80
:10D2100030DA00241D4E0821301940304156491C97
:10D2200025D0077ABD06AD0E284600F01FFB800012
:10D230003658002E1BD0BF090121A940154AA8006D
:10D2400080180068009A8003800F114202D00228E3
:10D2500002D00CE003280AD1032F05D102280AD0FE
:10D260000221284600F072FE39462846B047641C69
:10D27000062CCFD3F8BD0321F3E700000063004084
:10D28000006000407C61004000050050402A002002
:10D29000006500400007005010B5064900200860F6
:10D2A00048608860C860034940390860486000F001
:10D2B00093FF10BD40110140FEB50020C043124D48
:10D2C00002906869019068462E6900F025FB0746C8
:10D2D00000F0DEFB0446002F08D002AA0199009856
:10D2E00000F03AFB029800F01DFC06E0029800F006
:10D2F00019FC002801D1002C02D0304600F0BEFA03
:10D3000000206871FEBD00000C28002010B5074801
:10D310004068002807D08047002803D0002211462B
:10D3200000F020F910BD00F04FFB10BD30280020A8
:10D3300010B500F089FB002805D01F491D48486042
:10D34000C8131E4988611E48018CC9B201290BD13E
:10D35000828C120708D1028D1206120F042A03D103
:10D36000828D1206120F0AD0012921D1818C090762
:10D370001ED1018D0906090F0A2904D007E0114AC0
:10D3800001219160F5E7828D1206120F05D00D295B
:10D390000ED1808D0006000F0AD10B4801680129CB
:10D3A00004D00A49016001680129FCD1C021416112
:10D3B00010BD0000DFFF07C000050040006C00400A
:10D3C000C00F00F00006004000EC0640759300001E
:10D3D0007CB51B4CA0681B4E0025002818D0A5600A
:10D3E00019488069C1B2194800F0EDF8002805D04D
:10D3F00001216A4611700190684607E01348816870
:10D40000C068401A012803D16846057071688847D2
:10D41000E069002803D0E561032000F0B1FD606AF7
:10D4200000280BD06562084980390868086002212D
:10D430006A46117001907168684688477CBD00009B
:10D44000002100400428002000250040202A002060
:10D4500030B47446641E2578641CAB4200D21D466D
:10D46000635D5B00E31830BC18470000002805DB53
:10D47000C106C90E012088400149086070470000BC
:10D4800080E200E0002805DBC106C90E01208840CB
:10D49000014908607047000000E100E0002805DB5A
:10D4A000C106C90E0120884001490860704700008C
:10D4B00000E200E002E008C8121F08C1002AFAD109
:10D4C00070477047002001E001C1121F002AFBD104
:10D4D0007047000038B50D4C6078022802D00C4926
:10D4E0000120886069460B4800F04AF8002802D005
:10D4F00000F016F838BD0848802181606A46074B65
:10D500001278DA6102226270416038BD042800207E
:10D5100000200040302A0020002300400025004069
:10D520001CB506490120C8600549487003206A46B9
:10D5300010704968684688471CBD00000020004004
:10D540000428002004490020487004490122CA60D0
:10D550004A6003490860704704280020002000400A
:10D5600000250040BFF34F8F04490348C860BFF354
:10D570004F8F00BFFDE700000400FA0500ED00E05A
:10D580008268C36893420AD0826883881A4003681D
:10D590009A5C0A708168491C8160002070470520F0
:10D5A0007047002906D0002A02D0531E134203D030
:10D5B000092070470E207047016083800021816040
:10D5C000C160084670478268C3689B1A828893428C
:10D5D00008D8C36813400268D154C168491CC160AF
:10D5E000002070470420704710B501460148FFF73E
:10D5F000C7FF10BD202A0020FFB5584F83B000267A
:10D600000D4604467E707A6000292AD0A8882968D1
:10D6100082B25348FFF7C5FF002823D1A889A96823
:10D6200082B24F481030FFF7BCFF00281AD1607853
:10D630004C49032280004018026022783046920054
:10D6400051180E60484D6178E96021786961A168E0
:10D650006962454E61794036002905D00E21F1629C
:10D6600003E0072007B0F0BDF0622379022B17D04A
:10D670003E493F4A012B45D004232B608860C86196
:10D68000F06A40084000F062581FA860286101203D
:10D690009060106078700C98008800283FD043E0BC
:10D6A00000F000FC002803D100F0D2FB0028D9D103
:10D6B0003048694600680090A07800F0FBFB002825
:10D6C000D0D1401E2861A078A860F06A01210843EB
:10D6D000F0622848284A40680190E07801A900F0EB
:10D6E00063FB0028BED1E078012100F00DFBE0785B
:10D6F00000F0A4FB002801D0002000E0012000F091
:10D700003FFCC8E704232B608860C861F16A0120F0
:10D710000143F162E1782961A178A960B8E70C9929
:10D7200038780880401C387000211448C943816053
:10D73000A12189004160124904200860114B06991B
:10D740001A68FF2424048907090EA24309040A4326
:10D750001A600D490860002084E7000004280020BA
:10D76000202A002000070050002500400021004032
:10D770000020004048E30100B1D90100002300402F
:10D7800080E200E000E400E000E100E010B50146C6
:10D790000448FFF718FF0446022000F0F1FB204682
:10D7A00010BD0000302A00201CB5041D0088192877
:10D7B0001ED01B281BD111480078002817D010A2BA
:10D7C00006CA01920091E01C06226946FFF7C0FCE0
:10D7D00000280CD1A52000F08DFDA07AC00800F033
:10D7E00089FDA07AC10820460B3000F0A1FD1CBDC8
:10D7F000A0780228FBD100F045FC1CBD00280020C9
:10D800007E92C2FB54C600000022D243830004492A
:10D810000428CA5002D30818403002717047000033
:10D82000402A0020F0B50025ED43002A02D0002355
:10D83000042601E004230A260B4C04E09F00E7596C
:10D840007F1C04D05B1CB342F8D32846F0BD2618D9
:10D850005DB2203635729E00A151002AF5D1E11843
:10D8600040310871F1E70000402A00200249091800
:10D870002820085670470000402A0020F8B52248AA
:10D8800001694A1C3CD024225143826889184E68A1
:10D890001E494C6847690079E11B0D022D0AED1CF9
:10D8A000002815D101201A49000448601849403960
:10D8B00048601120FFF7DAFD1120FFF7E3FD15495D
:10D8C000012008602F20FFF705FC0F490120087197
:10D8D000B54200D23546E81900020C49000A403131
:10D8E00008600A494968001B091B0902090A00026D
:10D8F000000AC91C814202D91120FFF7CFFDF8BDF3
:10D9000000F09AFBF8BD00000C2800200015014033
:10D91000401301400010014010B50E4900238A78E1
:10D92000CC78A24212D0521CD2B28A70022A00D104
:10D930008B708A78074B92001C339A5802604869B2
:10D9400010180002000A4861012010BD0360002089
:10D9500010BD00000C280020F7B5144C0025A76866
:10D9600023691EE024215943C9194E68864202D911
:10D97000301A486017E0801B751900264E600E753E
:10D980000E699C460B6AB646002E0AD0019E761997
:10D990003602360A8E607646CE6016680E626146A2
:10D9A0001160591CDED12361FEBD00000C2800204F
:10D9B00010B500F043FA002801D0002000E001205B
:10D9C00000F0DEFA10BD0000F8B51E4C20780028EB
:10D9D00037D02069002807D00026E068002805D04D
:10D9E0000025002E04D013E00126F6E70125F8E714
:10D9F000684651DF052806D0002806D000221146CF
:10DA0000FFF7B0FD04E0012602E021690098884795
:10DA1000002D12D1608869460880A06861DF052862
:10DA200006D0002806D000221146FFF79BFD04E037
:10DA3000012502E0E168A0688847002ED8D0002DBB
:10DA4000CFD0F8BD302800201048018CC9B2012980
:10DA500017D1818C090714D1018D09060A0F03D152
:10DA6000828D1206120F0ED0090F012903D1828D6B
:10DA70001206120F07D0032903D1808D0006000F74
:10DA800001D000207047012070470000C00F00F057
:10DA9000F8B5234801690091457833E02048E90052
:10DAA000C0680E1834782AE0182060437168641C3E
:10DAB0000818B178E4B2A14200D10024017802290B
:10DAC00002D003291BD113E0154A40682421926833
:10DAD00041438F18397D002911D000F045FB00200B
:10DAE00038750CE024277843C0180275006A03E0FB
:10DAF0000B4900228B680869471CF3D108617078D4
:10DB0000A042D1D128466D1EEDB20028C6D10448EE
:10DB100001690098814201D00120F8BD0020F8BDC4
:10DB20000C280020F8B50446384800270169009108
:10DB300046785CE03548F100C2688D1851E0601C01
:10DB400007D0324A24209268604321468018046A34
:10DB500024E02878182141436A68401CC0B252185A
:10DB60002870A978884200D12F70284B5168242052
:10DB70009B684843C0181378012B34D1037D002BD8
:10DB800031D193688360D368C360136903615269BC
:10DB9000C2611E4A5279002A00D087601B4B8268FE
:10DBA0005B6996469C46D31A1A02194B120A9A428E
:10DBB00002D2C368D21808E0724663469A1A12026B
:10DBC000C368120A934202D99A1A426000E0476081
:10DBD00087600122C7600275921E0262084600F04B
:10DBE00091FA601CABD1287869788842A7D1304679
:10DBF000761EF6B200289DD1044801690098814242
:10DC000001D00120F8BD0020F8BD00000C28002044
:10DC1000FFFF7F0008B50121022000F063FB002315
:10DC200048221C49112000F055FA002803D0002298
:10DC30001146FFF797FC00246846009444700221C7
:10DC4000017060DF002803D000221146FFF78AFC34
:10DC5000114800F035FA002803D000221146FFF7E2
:10DC600081FC00F00FFA01260C4D48DF002803D09C
:10DC700000221146FFF776FC00F0F0FA0028F4D0FD
:10DC800000F042FBAF2803D0BF28EED12C70ECE7A8
:10DC90002E70EAE748280020A9D7010000280020BC
:10DCA0008207D30EFF229A408907090E10B59940CA
:10DCB000002808DB8408104BA400E4182368934371
:10DCC0000B4323600AE003071B0F083B9C080B4B28
:10DCD000A400E318DC6994430C43DC61C206D20E55
:10DCE00001219140002801DB054A1160002801DB79
:10DCF0000448016010BD000000E400E000ED00E019
:10DD000080E200E000E100E0F3B581B00F46019849
:10DD100000F07AF9012400281E4E019817D0FFF771
:10DD2000A5FD8019403000798009032802D0012820
:10DD300006D007E01848006901998C40204201D1C3
:10DD4000022100E00321019800F000F9FEBD00F07F
:10DD500067F90028FAD00198FFF788FD0546810091
:10DD6000C81D0E4AF93089180A6980B222430A6137
:10DD70000B49401800210160002FE7D00198FFF700
:10DD800075FD800030580028E0D00648AC40446063
:10DD9000FEBD0000402A0020000500500065004044
:10DDA0000060004000630040F8B5204F0D46044677
:10DDB0003819282141560026C8171346401C01D0A7
:10DDC000082630E0EA7819462046FFF72BFD411C73
:10DDD00028D0174BAA78A100C918002A03D00A68D6
:10DDE00002239A4301E06A7892000A60E9780029E8
:10DDF00010D082000F482978101802690E4B1A4083
:10DE00000261E206D20C8907890B0A4301690A43C1
:10DE1000026108E0381840302A78017992011143F4
:10DE2000017100E004263046F8BD0000402A0020C1
:10DE30000007005000650040FFE0FCFF034909694E
:10DE4000C140C807C00F00D0012070470005005036
:10DE500070B5124DA87B002801D0082070BD0F4975
:10DE600000204039421E0B182033401CC0B21A72E9
:10DE70002028F8D300242046FFF7C6FC641CE4B237
:10DE80000A2CF8D301210620FFF70AFF01200449DC
:10DE9000C00748600120A873002070BD802A0020C0
:10DEA000006300400248807B002800D001207047BA
:10DEB000802A0020F8B504461F480D46001920307E
:10DEC000082141560026491C01D008262FE0A978D8
:10DED00000291DD0012200212046FFF7A3FC411C90
:10DEE00014D0830015482A78181869780369144FEC
:10DEF0003B4003610369E706FF0C9207920BC907D9
:10DF0000C90A3B430A431343036104E004260EE0BD
:10DF10000121C94301720B4A0320A100891808603E
:10DF20006A780120A0400849012A02D0C860304622
:10DF3000F8BD8860FBE70000402A00200065004033
:10DF4000FFE0ECFF0007005000050050820006488B
:10DF50001018026803231B049A4302600268090434
:10DF60000A43026070470000000700500349401850
:10DF70000068012800D000207047000000600040C9
:10DF800010B51D4A1D490300FFF762FA05040B3165
:10DF900020271200487801281FD0022808D103202A
:10DFA00005E04878002804D0032801D102204870F9
:10DFB00010BD134B04201860124B012018609368A9
:10DFC000D2689A42F3D0FFF785FA10BD487801284D
:10DFD00006D0022804D00328F7D1FFF7B3FA10BD0A
:10DFE0009068D1688142EED1FFF79AFA10BD487867
:10DFF0000128E8D010BD0000302A002004280020AD
:10E0000000250040002000400449081828214156FE
:10E01000042901DB0120704700207047402A0020BE
:10E020000449081828214156042901D201207047CB
:10E0300000207047402A002070B501240D4960047B
:10E040000860BFF34F8FBFF36F8F0B49401088609C
:10E05000094940398860094D6C602F20FFF73AF874
:10E06000AC60074D00242F206C61FFF733F82C7152
:10E0700070BD000080E100E040130140001001404D
:10E080000C28002010B50A48FD22017849084900F3
:10E0900011400170A02101814181002141608181F5
:10E0A00086DF002803D000221146FFF75BFA10BD7F
:10E0B0009028002010B508461146C046C04610BD45
:10E0C000002803D00249C860002070470E20704726
:10E0D0003028002070B5002901D08C0701D007201E
:10E0E00070BD064C0125A16062800549636010DFA8
:10E0F0000028F5D1257016202EDF70BD30280020B5
:10E10000B5E00100F0B5174F2421BC6841430D195B
:10E1100039694A1C09D024224A4316196B6872686F
:10E12000934204D8D21A726029623861F0BD0A465F
:10E1300002E00A46396A9B1B4E1C0BD024264E4334
:10E1400037197E689E42F4D324264E4336197768E9
:10E15000FF1A77606B60296224214A431119086213
:10E16000F0BD00000C28002070B5194C2269A5688C
:10E170001346114606E0814207D00A462426714321
:10E180004919096A4E1CF6D170BD002EFCD08A4296
:10E190000CD1242043435819006A2061401C05D14A
:10E1A0000C4B01209860002363616071242041437F
:10E1B0004819242341685A43006A52191062421CCC
:10E1C000E2D024225043401942685118416070BD8A
:10E1D0000C28002000100140F8B51E4C2569681C71
:10E1E00036D01D48002640686169401A07023F0A80
:10E1F00019E024204543A0682A185068B84214D872
:10E20000A3693F1A8619156A002B09D0D169906954
:10E210009847002807D000221146FFF7A3F902E033
:10E220009169D0698847681CE3D1A178E078814280
:10E2300006D1401CC0B2E070022801D10020E0707D
:10E2400004490006800D1C310E501420FFF726F9FA
:10E25000F8BD00000C28002000150140014800789E
:10E26000704700000128002010B5007800280DD16B
:10E27000084C074821784018FFF7B6F92078401C71
:10E28000C0B22070802801D30020207010BD000093
:10E29000A02900200128002010B58AB00023019396
:10E2A0006C46029320716171039223840B48802194
:10E2B000049080300591069008A8079100900323F0
:10E2C000074A04A901A8FFF797F9002803D0002204
:10E2D0001146FFF747F90AB010BD0000A028002042
:10E2E00069E2010010B5024AFFF7D6FF10BD000039
:10E2F00000E0D70110B5FFF749FA002801D000204F
:10E3000010BD012010BD000070B50749074C0D7805
:10E3100022780846491C521EFEF708FF2078401E4E
:10E320002070284670BD0000A02900200128002090
:10E3300070B50D460646002403E0305DFFF726FA6F
:10E34000641CAC42F9DB70BD00010000030000005A
:10E3500070E301000028002048000000B4D4010050
:10E36000B8E3010048280020480A0000C4D4010096
:10E37000000000000100000000000000000000009C
:10E38000000000000000000000000000000000008D
:10E39000000000000000000000000000000000007D
:10E3A000000000000000000000000000000000006D
:08E3B000000000000024F4004D
:040000050001D0C165
:00000001FF
