:020000040001F9
:10B000009821002015B101002FB1010031B10100DC
:10B010000000000000000000000000000000000030
:10B0200000000000000000000000000033B101003B
:10B03000000000000000000035B1010037B1010040
:10B0400039B1010039B1010039B6010039B101004F
:10B0500039B1010000000000FDB301009DB3010003
:10B0600039B1010039B1010039B1010039B1010034
:10B0700039B1010039B1010039B1010039B1010024
:10B0800039B1010051B5010039B1010039B10100F8
:10B0900071B5010039B1010079B5010039B1010084
:10B0A00039B1010039B101000000000000000000CA
:10B0B0000000000000000000000000000000000090
:10B0C0000348854600F058F90048004791BE01004A
:10B0D00098210020401E00BF00BF00BF00BF00BF7E
:10B0E00000BF00BF00BF00BF00BF00BF00BFF1D165
:10B0F00070470000401E00BF00BF00BF00BF00BF80
:10B1000000BF00BF00BF00BF00BF00BF00BFF1D144
:10B11000704700000321094802680A43026008489A
:10B1200002680A4302600748804707480047FEE775
:10B13000FEE7FEE7FEE7FEE7FEE70000240500402D
:10B140005405004099B50100C1B0010003460B430E
:10B150009B0703D009E008C9121F08C0042AFAD2CD
:10B1600003E00B780370401C491C521EF9D2704753
:10B17000D2B201E00270401C491EFBD2704700228F
:10B18000F6E710B513460A4604461946FFF7F0FFE6
:10B19000204610BDF8B502464A40D40F42004B008D
:10B1A00052085B089A4202D20246084611464A00FB
:10B1B00023D0C30D4A00DDB2120EAD1A202D35DAB0
:10B1C00049020126490AF6058A19002C00D052428C
:10B1D00020214F1B1146B9402A411018C20D9A4236
:10B1E00021D0002C17D0012D08DCDA05801AD20FEF
:10B1F0008019D207DBB200F086F8F8BDDA05801AB4
:10B20000012340001B06C01880185A428018CA0F3C
:10B210001043490007E04908C2071143DA05801AC4
:10B2200080194008801800F066F8F8BD610001221E
:10B23000511A001BF7E70122D2075140AAE7012269
:10B24000D2075040A6E7024670B54A40D30FDB074D
:10B2500040002DD04A002AD0010E140E0002120226
:10B260000919400A520A8418E50104465443000AA9
:10B27000120A2E045043A4194219200CC543AA18DF
:10B28000120C0125AD03521C521912047F392404FB
:10B2900000D0521C104301D44000491EC2B20C061B
:10B2A000C0092018401C4008802A02D003E000207A
:10B2B00070BD40084000002900DA0020184370BD2E
:10B2C00010B500229623114600F01DF810BD410074
:10B2D00040020122400AD205090E80187F2901DAB6
:10B2E00000207047962903DC9622511AC840704707
:10B2F000963988407047002904DA401C490001D182
:10B3000040084000704770B40024050C05D110249B
:10B31000000402D1002921D01124050E01D1000220
:10B320000834050F01D10001241D850F01D18000D3
:10B33000A41C002801DB4000641C002908D0202543
:10B340002E1B0D46F540A14000D0012129430843A2
:10B3500001061B1B000ADB1D02D5002070BC7047D4
:10B36000DB05181880180029F8DA401C4900F5D1CF
:10B3700070BC400840007047064C0125064E05E0B1
:10B38000E36807CC2B430C3C98471034B442F7D306
:10B39000FFF79AFE38C8010058C80100FEB5134CEB
:10B3A0000026E0680125124F002810D000F058F95F
:10B3B00000280BD00120B86068460670E068019054
:10B3C000217C68460181A57421688847FEBD094833
:10B3D00006600120B8600848066069460D70806804
:10B3E0008880A57468462168EFE700008419002072
:10B3F000007300400071004000750040F0B500256A
:10B40000FF248BB0013401262F460195204600F021
:10B41000FFFE002808D047484068304204D0464824
:10B420000021201835430160241D76007F1CA4B242
:10B43000042FEBD3FF207D3000F0EAFE002807D078
:10B440003E4800210160400705433D4800690190E6
:10B450003C4C280712D0012700262F420AD03A4838
:10B46000B200111808690969C004C00E8903A25806
:10B47000890F90477F00761C042EEED3002D57DAFB
:10B4800000200590401E4DE0A11940310878850646
:10B49000AD0E42B2521C39D00121A940089A009148
:10B4A000114233D080090390284600F0DFFA800073
:10B4B00020580490002802D10398032826D103982D
:10B4C0000099032802D10598084305901F4AA80057
:10B4D00080180068019A8003800F114202D0022870
:10B4E00002D013E0032811D10399032907D10228C0
:10B4F0001CD00221284600F07BFE7F1CFFB204987E
:10B50000002803D0049A284603999047761C042EFD
:10B51000BAD3002F0CD00A4800690199884207D09D
:10B520000190059800273E460890ADE70321E1E72A
:10B530000BB0F0BD00630040006000407C61004043
:10B540000005005020190020006500400007005051
:10B5500010B506490020086048608860C86003494B
:10B5600040390860486000F0F3FF10BD4011014011
:10B5700010B500F083FF10BD10B5064840680028E4
:10B5800005D08047002801D000F000FA10BD00F07F
:10B590002DFB10BDA018002010B500F063FB0028A3
:10B5A00005D01F491D484860C8131E4988611E48C0
:10B5B000018CC9B201290BD1828C120708D1028DEE
:10B5C0001206120F042A03D1828D1206120F0AD01E
:10B5D000012921D1818C09071ED1018D0906090F8E
:10B5E0000A2904D007E0114A01219160F5E7828D14
:10B5F0001206120F05D00D290ED1808D0006000F06
:10B600000AD10B480168012904D00A490160016888
:10B610000129FCD1C021416110BD0000DFFF07C03E
:10B6200000050040006C0040C00F00F00006004024
:10B6300000EC06407593000010B500F0EFFF10BD60
:10B6400002E008C8121F08C1002AFAD170477047EB
:10B65000002001E001C1121F002AFBD17047704792
:10B6600070B514490020124B0860134908608C68BB
:10B670001248427CC5685600521CAC53D2B2427488
:10B68000047CA24212D2846800226468002C0AD092
:10B69000012284602068486001200860002A00D0F0
:10B6A0001860002070BD44688460F3E7012070BD1D
:10B6B00000700040007100400075004084190020B7
:10B6C000F7B584B00025168807461580406B1446F0
:10B6D000002813D003780598032E51D3022101705E
:10B6E00021881122491C89B2218042542188491C99
:10B6F00089B2218043542088401C2080386B002868
:10B700001DD005462088059902461232B24237D82C
:10B7100011220A5420881022401C80B220800A5432
:10B720002088401C20800F202A5C2388401ECA5499
:10B73000228840B2521C22800028F5DA00253846C3
:10B7400020300290807B002806D03346224605999F
:10B7500000F0ACFA050014D10298407B002806D016
:10B7600032462146059800F051F9050009D1B87814
:10B77000002823D0059886462088001DB04202D9B3
:10B780000C2007B0F0BD684679DF0028F9D1218888
:10B7900003207246505420881921401C80B220801A
:10B7A000115420887146401C80B2208041186846A0
:10B7B000008800F0C7FF218840182080F878002812
:10B7C00017D0218803230A46FB56C91C0598B142AD
:10B7D000D6D80221815421880122491C89B22180B6
:10B7E00042542188491C89B2218043542088401C3E
:10B7F00020807868002817D021880023C3560A4685
:10B80000C91C0598B142BBD80221815421880A2263
:10B81000491C89B2218042542188491C89B2218067
:10B8200043542088401C2080388900280AD0009486
:10B8300038460196062202210830059B00F087FF5A
:10B8400005009ED1388A00280AD000943846019617
:10B85000072203211030059B00F079FF050090D1ED
:10B86000388B00280AD000943846019615221421FE
:10B870001830059B00F06BFF050082D1386A002864
:10B8800006D033462246059900F04CF90500D8D180
:10B89000786A002806D033462246059900F06CFBF2
:10B8A0000500CED10298007B002807D033462246FF
:10B8B0003846059900F05EFD0500C2D138780028B1
:10B8C00007D0334622463846059900F089FB05002B
:10B8D000B7D1284655E7000030B5204893B0058819
:10B8E0002846FFF7EDFC1E49FFF7ADFC1D49FFF7A9
:10B8F000A2FC1A4C6121A41C217065801A49FFF733
:10B90000A2FCFFF7E4FCA080184801698908C90778
:10B91000C90F00D001210069800FC007C00F00D0FF
:10B92000022001436170592168460180062102947A
:10B930008180382103A8FFF722FC002168460173AB
:10B940000421C1730C90002103A800F02BF80028FB
:10B9500001D000F01BF813B030BD000070180020BB
:10B960006357243C34F7484000007A4400050050F7
:10B97000BFF34F8F04490348C860BFF34F8F00BF28
:10B98000FDE700000400FA0500ED00E00EB500211F
:10B99000029000916A4601910148FFF7E9FF0EBD50
:10B9A00001400000F0B50C4693B01F216A4611809B
:10B9B000072600279180002809D0C17849070DD5B6
:10B9C00002A9FFF77DFE002809D102AD01E00025A4
:10B9D0001780002C0ED0E078002802D0304613B03B
:10B9E000F0BD01AA0AA92046FFF76AFE0028F6D199
:10B9F0000AAA02E068460022878068468088C3B2AF
:10BA000068460088C1B2284672DFE8E77CB5054683
:10BA100008880C460930904201D90C207CBD68464C
:10BA200071DF0028FAD121880820685420881B2162
:10BA3000401C80B220802954208800A9401C80B27C
:10BA40002080401906220131FFF780FB20886946DB
:10BA5000801D80B220800978002900D0012129545E
:10BA60002088401C208000207CBD0000024909186D
:10BA7000202008567047000020190020F8B5234800
:10BA8000C16800293ED00E6821494C680769C0781A
:10BA9000E11B0D022D0AED1C002814D101201D4AC6
:10BAA000000450601B4A403A50601B494000086047
:10BAB0001A4908601A49012008602F20FFF71AFB75
:10BAC00012490120C870B54200D23546E81900027B
:10BAD0000F4B000A403318600D4A5168001B091BC8
:10BAE0000902090A0002000AC91C814209D95068EA
:10BAF00018602F20FFF7FEFA012007494004803923
:10BB00000860F8BD00F09CFBF8BD00008018002024
:10BB1000001501404013014080E200E000E100E038
:10BB200000100140F8B50646108814468446801D72
:10BB30000D46984201D90C20F8BD32880720062A0C
:10BB4000FAD31927FF01184BBA4201D99A42F3D10F
:10BB500071880629F0D3B94201D99942ECD19A42B1
:10BB600003D0994201D08A42E6D805216046295483
:10BB700020881221401C80B2208029542088401C3B
:10BB800080B220804119308800F0DCFD2188401807
:10BB900080B220804119708800F0D4FD21884018BF
:10BBA00020800020F8BD0000FFFF000010B50E4906
:10BBB00000234A788C78A24212D0521CD2B24A702A
:10BBC000022A00D14B704A78074B920018339A58DA
:10BBD0000260086910180002000A0861012010BD07
:10BBE0000360002010BD000080180020F8B51C4C38
:10BBF0002078002833D02069002807D00026E0688C
:10BC0000002805D00025002E04D011E00126F6E71B
:10BC10000125F8E7684652DF052804D0002804D043
:10BC2000FFF7B4FE04E0012602E02169009888478E
:10BC3000002D10D1608869460880A06861DF052862
:10BC400004D0002804D0FFF7A1FE04E0012502E0A3
:10BC5000E168A0688847002EDCD0002DD3D0F8BD65
:10BC6000A01800201048018CC9B2012917D1818C7D
:10BC7000090714D1018D09060A0F03D1828D12061E
:10BC8000120F0ED0090F012903D1828D1206120F57
:10BC900007D0032903D1808D0006000F01D00020BA
:10BCA0007047012070470000C00F00F030B51588C4
:10BCB000EC1C9C4201D90C2030BD02244C55138849
:10BCC0001C255B1C9BB21380CD5413885B1C9BB25C
:10BCD0001380012807D0022807D0032807D00428A2
:10BCE00007D0072030BD002004E0012002E0CC5442
:10BCF00001E00320C8541088401C1080002030BD93
:10BD0000F8B52C49C8680A690C780F7989688646A5
:10BD1000944600913EE00099E20055182A7836E0FA
:10BD2000182353436968521CC918AB78D2B29342A6
:10BD300000D100220B78022B02D0032B27D123E065
:10BD40004E680346014603E0B14204D00B46C96980
:10BD500000291CD0F8E7002919D08B4208D1C0690E
:10BD6000002805D1144F0126BE600026B4460127E5
:10BD70000E68C969D961002909D00B689B190B604D
:10BD800005E00174C06900E000210028F9D169785C
:10BD90009142C5D12146641EE4B20029BBD10549B8
:10BDA00062460A61C8600F71704501D00120F8BD7C
:10BDB0000020F8BD8018002000100140F8B50446AE
:10BDC00031480026C168009107784EE02E48F900FE
:10BDD00080680D1843E0002C02D02046E4691FE083
:10BDE0002878182141436A68401CC0B25118287055
:10BDF000AA78904200D12E700A784868012A30D182
:10BE0000027C002A2DD18A684260CA6882600A6971
:10BE1000C260496981611C490979002900D04660E6
:10BE2000194943680A699C46991A0902174B090A7D
:10BE3000994202D28268891807E06146511A0902C4
:10BE40008268090A8A4202D9511A016000E006603C
:10BE50004660012186600174C66100F059FB002C28
:10BE6000B9D1287869788842BAD138467F1EFFB2A6
:10BE70000028ABD10448C1680098814201D001205C
:10BE8000F8BD0020F8BD000080180020FFFF7F00F3
:10BE9000344C86B0206800903349684600F04AF977
:10BEA000002801D0FFF772FD304800F033F903217C
:10BEB000022000F095F900211E2000F091F9606841
:10BEC0000590002348222A4905A800F0BDFA002861
:10BED00001D0FFF75BFD00216A46084600F09CFA9E
:10BEE000002801D0FFF752FD224800F0F5F90028A4
:10BEF00001D0FFF74BFD684600F084FA002801D01E
:10BF0000FFF744FDFFF7E8FC194818214830FFF718
:10BF100036F91748032148300170002141604B2257
:10BF2000017292010282418273DF002801D0FFF783
:10BF30002DFD7D24E4000D480121083800F0B8F8FB
:10BF4000002801D0FFF722FD00F014F948DF002897
:10BF500001D0FFF71BFD204600F09CF8FFF7BCFC6A
:10BF6000E9E700002CC801005FB601007818002046
:10BF7000C01800207018002070B5144682880E4644
:10BF800005462088111D4118921C994201D8FE2AAD
:10BF900001D90C2070BD521C32542088FF21401C56
:10BFA00080B2208031542088401C80B220808119CA
:10BFB000288800F0C7FB2188401880B22080AA881A
:10BFC000002A09D0A968002908D08019FFF7BEF817
:10BFD0002088A98840182080002070BD072070BDEF
:10BFE000F8B50F46017814460546012902D1687854
:10BFF000002806D02088821C9A422DD8012902D020
:10C0000006E00720F8BD69784118891C994223D8B9
:10C01000181A801E86B2684606802188B81C081847
:10C0200069467DDF0028EDD12878022805D16946D0
:10C030000988B14201D809210AE00821012805D167
:10C040006878B04202D86A46108001E068460680EF
:10C0500068460088FE2801D90C20F8BD2288401CC3
:10C06000B8542088401C80B220803954208869460A
:10C07000401C20800988401820800020F8BD000066
:10C08000034940180068002800D0012070470000D4
:10C090000070004031B5054C04E0401E0090204681
:10C0A000FFF718F800980028F7D138BDE703000023
:10C0B00070B5144CA27C022A16D00222A2746268C7
:10C0C000A260217400216174E0600F481268426030
:10C0D0000E4A86151160012505602068002805D0EC
:10C0E0000B49012048600BE0112070BD3046FFF77E
:10C0F000C7FF0028FAD0FFF7B3FA0028F6D0A574DE
:10C10000002070BD841900200075004000710040BF
:10C11000007300400021064A41605168002902D1A5
:10C120005060704711464A68002AFBD1486070474A
:10C130008419002070B50C4D0C46A97C002901D053
:10C14000082070BD094A00211160002C06D000288B
:10C1500000D107480178072000F012F801202C6078
:10C16000A874002070BD00008419002000710040F8
:10C1700034C8010001490120086070470070004088
:10C180008207D30EFF229A408907090E10B5994005
:10C1900000280BDA03071B0F083B9C080C4BA4007C
:10C1A000E318DC6994430C43DC6107E08408094B25
:10C1B000A400E418236893430B432360C106C90E0F
:10C1C00001208840044908600449086010BD00004F
:10C1D00000ED00E000E400E080E200E000E100E0CB
:10C1E000024A8900800080180160704700070050F3
:10C1F000820006481018026803231B049A43026059
:10C20000026809040A4302607047000000070050FA
:10C21000034940180068012800D000207047000042
:10C22000006000404058002800D0012070470322E1
:10C23000120280184068084000D0012070470000BA
:10C2400070B501240B49600408600B4940108860F8
:10C25000094940398860094D6C602F20FEF74AFF7C
:10C26000AC60074D00242F202C61FEF743FFEC70DB
:10C2700070BD000080E100E040130140001001406B
:10C280008018002030B50A48FF21C57D0022094CE6
:10C290000931094B002D625007D09969437EC2686D
:10C2A000D154417E491C417630BD986930BD0000B3
:10C2B0006819002000200040002500401FB5012320
:10C2C0006A46137010720348019106C86846904789
:10C2D0001FBD00006819002008B502490020009128
:10C2E00008BD00007018002010B50121202805DAD3
:10C2F0001A4A8140114201D1194810BD8107C90E67
:10C30000002808DA0207120F083A9208154B92002B
:10C31000D218D26904E08208134B9200D218126836
:10C32000CA401106890F042911D200290FD0022911
:10C330000DD00E494C68C306DB0E01229A40002C3A
:10C3400008D0400980000B5813430B5004E0044808
:10C35000401C10BD06480260002010BDFC06FFBC5A
:10C360000120000000ED00E000E400E0B41800202F
:10C3700000E100E0FFB50746806A81B0144600285E
:10C380003DD0002538462030009033E00C20B96ABB
:10C3900068430E18B088801CFE2802D90C2005B016
:10C3A000F0BD22880299401C885420881622401C27
:10C3B00080B2208002990A542088401C80B22080DC
:10C3C00002994118308800F0BDF92188401880B2E8
:10C3D0002080B288002A0AD0B16800290FD0029BC1
:10C3E000C018FEF7B3FE2088B188401820806D1C6D
:10C3F0000098EDB2007BA842C8D80020CFE7072004
:10C40000CDE700001CB5034901910091694660DF4A
:10C410001CBD00007018002070B50E46054614467D
:10C4200014211046FEF7ABFE01200021208021617F
:10C43000217326726572002D00D0A072002070BD9D
:10C4400010B5FFF795FA10BD70B5002901D08C0723
:10C4500001D0072070BD074C0125A160628006490C
:10C46000636010DF0028F5D125701620FFF73CFF30
:10C4700070BD0000A018002041C40100FEB51F4C93
:10C4800000252769E06802906846FFF78FFB01905E
:10C49000FFF736FC06460198002822D000230098BA
:10C4A000E16817E00E680A46864202D9301A086031
:10C4B00012E0801BF31800261660D668D169B446D6
:10C4C000002E07D0FE183602360A56606646966081
:10C4D000D56115460029E5D12846E160FFF76EFCDD
:10C4E00006E02846FFF76AFC002801D1002E02D0A2
:10C4F0000298FFF7C3FA00202071FEBD80180020CB
:10C5000001200249000508607047000000E200E0D9
:10C5100010B50E4BD968002906D002680C68A242FB
:10C5200004D8A21A0A60C161D86010BD0B4604E0AD
:10C530000B46C969121B002904D00C689442F7D33A
:10C54000A41A0C600260C161D86110BD801800207F
:10C55000F8B51D4DEC68002C34D01C48002740680D
:10C560002969401A0602360A2068B04218D8361ADD
:10C57000C7192246107CE46900280FD000201074EF
:10C580006B69002B07D0916950699847002805D046
:10C59000FFF7FCF902E0516990698847002CE3D16C
:10C5A0006978A878814206D1401CC0B2A8700228E0
:10C5B00001D10020A87004490006800D18310F50E9
:10C5C000FFF79EFFF8BD0000801800200015014015
:10C5D000FF2107481D31002242500648828A8168A7
:10C5E000895C828A521C82820348C16170470000C4
:10C5F0000020004068190020002500401FB50021E0
:10C600006A4611701072044882680192817506C8EA
:10C61000684690471FBD000068190020F0B5454DE1
:10C62000012185B049022846FFF701FE01270026B7
:10C63000414C002824D0FF2125312846FFF7F2FD88
:10C6400000281DD0FF2025302E5081203B4980003E
:10C650008860A07E002800D16F60022168460170CA
:10C660003749086808600390E17D68460172E06818
:10C670000190E675267606CC6846083C90472BE08C
:10C6800004212846FFF7D3FD002825D0FF210931DA
:10C690002846FFF7C7FD00281ED0FFF7F3FDE07D19
:10C6A000617E884218D1207E002808D0627EE16831
:10C6B000E0752069E0602676667610460AE0A07E86
:10C6C000002800D16F6081201C4980008860E675D9
:10C6D000607EE168FFF7F2FDFF211D312846FFF77C
:10C6E000A1FD00280DD0A18AA07D814202D2FFF7D2
:10C6F0006FFF06E0FF211D316E50002801D0FFF7CB
:10C700007DFFFF2145312846FFF78CFD00280ED024
:10C71000FF2045302E50A07E002800D02F60E07D05
:10C72000002804D0E675607EE168FFF7C7FD05B01C
:10C73000F0BD0000002000406819002000230040E8
:10C74000802400400870000A487002207047FFB53E
:10C7500083B016460C9D0D9C1F4602220095019445
:10C76000039800F00CF8002807D13B461022314610
:10C7700000950194039800F002F807B0F0BDFFB5F2
:10C7800083B0074600200C9C8646268805463AE082
:10C790007868A90042181188684681805188C18054
:10C7A0000022694601A865DF002839D16846017872
:10C7B0000598814226D17046002801D0002200E071
:10C7C00002222088891842180D998A4227D871467A
:10C7D00000290AD1401C80B22080069A0499115485
:10C7E0002088401C208001208646218806980A184F
:10C7F000694601A865DF002812D1694620880978BA
:10C80000401820806D1C3888A842C1DC7046002882
:10C810000AD02088801B401E80B2FF2802D90C203D
:10C8200007B0F0BD069988550020F9E70300000025
:10C83000010000070300000058C801007018002024
:10C840005000000040B60100A8C80100C018002038
:10C85000D808000050B601000000000000000000F1
:10C8600002040000000000000000000000000000C2
:10C8700000000000000000000000000000000000B8
:10C8800000000000000000000000000000000000A8
:10C890000000000000000000000000000000000098
:08C8A000000000000024F40078
:040000050001B0C185
:00000001FF
